:020000040000FA
:10000000C81300200D0300001503000017030000B3
:10001000190300001B0300001D0300000000000086
:100020000000000000000000000000006106000069
:100030002103000000000000F1050000850600001B
:1000400027030000290300002B0300002D030000FC
:100050002F030000310300003303000035030000CC
:1000600037030000390300003B0300003D0300009C
:100070003F0300004103000043030000450300006C
:1000800047030000490300004B0300004D0300003C
:100090004F0300005103000053030000550300000C
:1000A00057030000590300005B0300005D030000DC
:1000B0005F030000610300006303000065030000AC
:1000C00067030000690300006B0300006D0300007C
:1000D0006F0300007103000073030000750300004C
:1000E0007703000079030000000000007B0300009C
:1000F0007D0300007F0300008103000083030000F4
:100100008503000087030000890300008B030000C3
:1001100000000000000000008D0300008F030000BD
:100120009103000093030000950300009703000073
:10013000990300009B0300009D0300009F03000043
:1001400000000000000000000000000000000000AF
:10015000A1030000A3030000A5030000A703000003
:10016000000000000000000000000000000000008F
:10017000000000000000000000000000000000007F
:10018000000000000000000000000000000000006F
:10019000000000000000000000000000000000005F
:1001A000000000000000000000000000000000004F
:1001B000A9030000AB030000AD030000AF03000083
:1001C000B1030000B3030000B5030000B703000053
:1001D000B9030000BB030000BD030000BF03000023
:1001E000C1030000C3030000C503000000000000BD
:1001F00000000000C7030000C9030000CB0300009B
:10020000CD030000CF03000000000000000000004C
:10021000D1030000D3030000D5030000D703000082
:10022000D9030000DB030000DD030000DF03000052
:10023000E1030000E3030000E5030000E703000022
:10024000E9030000EB030000ED030000EF030000F2
:10025000F1030000F3030000F5030000F7030000C2
:10026000F9030000FB030000FD03000000F002F8AA
:1002700000F03CF80AA090E8000C82448344AAF104
:100280000107DA4501D100F031F8AFF2090EBAE802
:100290000F0013F0010F18BFFB1A43F001031847BA
:1002A00090210000B0210000103A24BF78C878C126
:1002B000FAD8520724BF30C830C144BF04680C606C
:1002C000704700000023002400250026103A28BFB4
:1002D00078C1FBD8520728BF30C148BF0B607047B8
:1002E0001FB502F097F81FBD10B510BD00F041F921
:1002F0001146FFF7F5FF00F033FA00F05FF903B4A1
:10030000FFF7F2FF03BC00F067F900003F488047A9
:100310003F480047FEE7FEE7FEE7FEE7FEE7FEE7B1
:10032000FEE7FEE7FEE7FEE7FEE7FEE7FEE7FEE7A5
:10033000FEE7FEE7FEE7FEE7FEE7FEE7FEE7FEE795
:10034000FEE7FEE7FEE7FEE7FEE7FEE7FEE7FEE785
:10035000FEE7FEE7FEE7FEE7FEE7FEE7FEE7FEE775
:10036000FEE7FEE7FEE7FEE7FEE7FEE7FEE7FEE765
:10037000FEE7FEE7FEE7FEE7FEE7FEE7FEE7FEE755
:10038000FEE7FEE7FEE7FEE7FEE7FEE7FEE7FEE745
:10039000FEE7FEE7FEE7FEE7FEE7FEE7FEE7FEE735
:1003A000FEE7FEE7FEE7FEE7FEE7FEE7FEE7FEE725
:1003B000FEE7FEE7FEE7FEE7FEE7FEE7FEE7FEE715
:1003C000FEE7FEE7FEE7FEE7FEE7FEE7FEE7FEE705
:1003D000FEE7FEE7FEE7FEE7FEE7FEE7FEE7FEE7F5
:1003E000FEE7FEE7FEE7FEE7FEE7FEE7FEE7FEE7E5
:1003F000FEE7FEE7FEE7FEE7FEE7FEE7FEE70000BA
:1004000004480549034A054B70470000B506000043
:100410006D020000C8110020C8130020C811002080
:10042000032A40F2308010F0030C00F0158011F820
:10043000013BBCF1020F624498BF11F801CB00F8F8
:10044000013B38BF11F8013BA2F1040298BF00F84C
:1004500001CB38BF00F8013B11F0030300F03080FE
:10046000083AC0F0088051F8043B083A51F804CB30
:10047000A0E80810F5E7121D5CBF51F8043B40F8F6
:10048000043BAFF30080D20724BF11F8013B11F801
:1004900001CB48BF11F8012B24BF00F8013B00F845
:1004A00001CB48BF00F8012B704702F0FF0343EA7D
:1004B000032242EA024200F037B8704770477047A3
:1004C00010B5203AC0F00B80B1E81850A0E81850E1
:1004D000B1E81850A0E81850203ABFF4F5AF5FEA31
:1004E000027C24BFB1E81850A0E8185044BF18C9D6
:1004F00018C0BDE810405FEA827C24BF51F8043B7D
:1005000040F8043B08BF7047D20728BF31F8023BD0
:1005100048BF11F8012B28BF20F8023B48BF00F864
:10052000012B70474FF0000200B5134694469646E3
:10053000203922BFA0E80C50A0E80C50B1F12001F6
:10054000BFF4F7AF090728BFA0E80C5048BF0CC0A4
:100550005DF804EB890028BF40F8042B08BF704702
:1005600048BF20F8022B11F0804F18BF00F8012B74
:100570007047754600F02CF8AE46050069465346B4
:1005800020F00700854618B020B5FFF739FFBDE819
:1005900020404FF000064FF000074FF000084FF0EA
:1005A000000BAC46ACE8C009ACE8C009ACE8C00937
:1005B000ACE8C00921F007018D46704710B504462C
:1005C000AFF300802046BDE81040FFF798BE000062
:1005D000004870470800002001491820ABBEFEE724
:1005E000260002007047000000000000000000002C
:1005F000EFF30980BFF36F8F154B1A681EF0100FD1
:1006000008BF20ED108A20E9F04F10602DE90900A5
:100610004FF0A00080F31188BFF34F8FBFF36F8FAF
:1006200001F0AAF84FF0000080F31188BDE809003E
:1006300019680868B0E8F04F1EF0100F08BFB0EC62
:10064000108A80F30988BFF36F8F704700BF00BF27
:10065000700000200000000000000000000000000A
:10066000074B19680868B0E8F04F80F30988BFF3BA
:100670006F8F4FF0000080F31188704700BF00BFFC
:100680007000002080B54FF0A00080F31188BFF308
:100690006F8FBFF34F8F01F073FC30B14EF60450F3
:1006A000CEF200004FF080510160002080F31188ED
:1006B00080BD00004EF68852CEF2000213684EF262
:1006C000600043F47003136042F61002C4F20F009E
:1006D000C0F28072026143F6D122C0F28E720260D3
:1006E00040F64252C0F29E1202F50053036040F6FB
:1006F000000340F2425CC0F28013C0F2DE1C03F53E
:10070000005101610CF5006102600361016000BFEE
:1007100050F8101C4906FBD54FF0C071C0F800C05E
:100720000161704741F27810C2F20000006828B9F8
:1007300041F2C410C2F20000006808B10020704706
:1007400041F29010C2F20000016841F2FC00C2F2D6
:1007500000000068421E0120914208BF022070473D
:1007600082B00120009041F275204FF0000CC0F2E1
:10077000000006A14FF480720023CDF804C001F000
:10078000B5FB00F08DFF00BFFEE700BF4D792054A0
:1007900061736B00F0B581B00C4641F2B81140F2C4
:1007A0007006C2F20001C2F200060F683168002232
:1007B00081F8552031680546081D00F003FD10B191
:1007C000681C0FD019E0306841F20C12C06AC2F206
:1007D00000020121136801FA00F023EA0000106012
:1007E000681C0AD14CB13068011D41F29010C2F270
:1007F000000000F031FD01B0F0BD30687C194460AC
:100800000AD340F27C00C2F2000000683168043173
:1008100000F004FD01B0F0BD40F27800C2F200002B
:1008200000683168043100F0F9FC41F26C10C2F24A
:10083000000001688C4238BF046001B0F0BD0000C8
:1008400070B5044600F02CFD41F2FC00C2F200003D
:10085000016840F2700501310160C2F200052968AB
:1008600041F28C16C2F2000641B1306860B92868C6
:10087000E16AC06A884298BF2C6005E02C6000687D
:10088000012801D100F0B4F941F20810C2F20000D1
:10089000016841F20C12013101602164E06AC2F288
:1008A00000020121136881401943116040F2840164
:1008B00000EB8000C2F2000101EB8000211D00F07E
:1008C000CBFC00F011FD306880B12868E16AC06A95
:1008D000884228BF70BD4EF60450CEF200004FF0A3
:1008E00080510160BFF34F8FBFF36F8F70BD000069
:1008F00070B500F0D5FC41F2BC16C2F200063068BB
:1009000010B100F0F1FC70BD41F21014C2F200040D
:10091000204600F073FC41F22415C2F2000528467F
:1009200000F06CFC40F27400C2F20000046040F27F
:100930008000C2F20000056005201021002200F0B6
:10094000EBFF306000F0D0FC70BD0000F0B581B06E
:1009500041F20015C2F200052868E0B141F2A41688
:1009600041F2FC07C2F20006C2F2000700F098FC58
:10097000F068C468201D00F025FC38680138386034
:1009800028680138286000F0AFFC204600F058F8D5
:1009900028680028EAD101B0F0BD000080B5026CE3
:1009A000002A08BF80BDD0E902C31344C360634579
:1009B00024BF0368C360C36808461946FFF730FDCB
:1009C00080BD000070B5866B036C0446E3B115462C
:1009D0001AB3E0681A46FFF723FDE168206C22682D
:1009E000091A9142E16003D2A16840420844E060E4
:1009F000A81EB0FA80F040093146002E18BF012130
:100A00000840361A002516E02068002598B9A0682D
:100A100001F068FBA56005460DE060681A46FFF727
:100A2000FFFC216CD4E9010200250844606090427B
:100A300024BF20686060711C2846A16370BD00005F
:100A400010B50446006B00F067FC204600F064FC23
:100A500010BD000041F20C1040F27001C2F2000023
:100A6000C2F2000100680968C96A99B940F28401BC
:100A7000C2F200010968084301280BD841F26C104A
:100A800041F2B811C2F20000C2F200010068096828
:100A9000401A70470020704740F27401C2F2000112
:100AA00009680A68B2FA82F35B090360002A0EBF84
:100AB0000020C8680068704740F284044EF604586D
:100AC00041F26C1741F2B815C2F20004CEF20008F0
:100AD0004FF08056C2F20007C2F20005FFF736FF62
:100AE0002068022805D3C8F80060BFF34F8FBFF31A
:100AF0006F8F00F07BFBFFF7ADFF0228EED300F015
:100B000033FE38682968884208D3FFF7A3FF02281C
:100B100028BF00F041FC01F08DFBDFE74FF0A000A3
:100B200080F31188BFF36F8FBFF34F8FFEE7000094
:100B3000B0B5049D002914BF2A602D60C5E90F01DE
:100B4000284601211C4600F009FF002085F850408E
:100B5000A864B0BD2DE9F0470A9C8246206B16467A
:100B60000F46DDE908599100A5229846FFF79DFC44
:100B7000206B00EB8600A0F1040020F007067FB197
:100B800004F13400002100BF7A5C42547A5C1AB14F
:100B9000092901F10101F7D3002084F83D0002E0AA
:100BA000002084F834000027201D042D28BF0425D0
:100BB000E562C4E9125700F02DFB04F1180000F0C3
:100BC00029FBC5F10500A06130465146424624612B
:100BD0006462276584F8547084F8557000F0DEFA7A
:100BE000B9F1000F206018BFC9F80040BDE8F087D8
:100BF000B0B540F284050024C2F20005281900F0C7
:100C0000FDFA1434642CF9D141F23814C2F2000414
:100C1000204600F0F3FA41F24C15C2F200052846D6
:100C200000F0ECFA41F27810C2F2000000F0E6FAAF
:100C300041F2A410C2F2000000F0E0FA41F290107C
:100C4000C2F2000000F0DAFA40F27800C2F20000CE
:100C5000046040F27C00C2F200000560B0BD0000FC
:100C600080B58C46014641F804CF9445006108D90F
:100C70009A4201D29C4511D240F27400C2F20000A7
:100C800007E08069D21A824208D240F28000C2F2A4
:100C90000000006800F0C2FA002080BD012080BD85
:100CA00010B5044600F0FCFAA06BB0FA80F04409DD
:100CB00000F01AFB204610BD10B5044600F0F0FA13
:100CC000A06BE16B401AB0FA80F0440900F00CFB15
:100CD000204610BD70B582B0846C0190A4B1A16BA8
:100CE000E06B814219D2A16B814220D294F8456019
:100CF00001A920460022FFF765FEFF2E054618D009
:100D0000701C84F845001DE04FF0A00080F31188AE
:100D1000BFF36F8FBFF34F8FFEE74FF0A00080F35C
:100D20001188BFF36F8FBFF34F8F00BFFEE7002521
:100D300008E054F8240F28B1204601F02DFA0028CD
:100D400018BF0125284602B070BD000008480068A1
:100D5000006880F308884FF0000080F3148862B6C2
:100D600061B6BFF34F8FBFF36F8F00DF00BF00BFCF
:100D700008ED00E070B582B040F27402C2F20002E9
:100D800012680546D2680E46D468201D00F01AFA93
:100D900094F82800410704D400F0FE0084F82800ED
:100DA00010E0A0693246411920462B46FFF758FF54
:100DB00040B10026204600212A460023009601F07B
:100DC000F5FA20B1216A2046884702B070BD4FF085
:100DD000A00080F31188BFF36F8FBFF34F8F00BF68
:100DE000FEE700002DE9F04186B041F2BC17C2F2E7
:100DF0000007386802A900224FF0000800F064FFE5
:100E000000286AD001AC02AD0BE000F0FE0086F8CD
:100E1000280000BF38682946002200F055FF00284E
:100E20005BD00298B0F1FF3F03DCDDE903200599B8
:100E3000904702980028EDD4049E706910B1301DCF
:100E400000F0C0F9204600F0B3F802990929E1D872
:100E50000246DFE801F0080808052A390808052AD3
:100E600096F82800D1E796F82800039BB16940F076
:100E7000010086F8280019443046FFF7F1FE0028EB
:100E8000C8D0316A3046884796F828004007C1D557
:100E90000398B16900230A1830460021CDF800807C
:100EA00001F084FA0028B5D123E096F8280040F03C
:100EB0000101039886F82810B06188B18118304686
:100EC0001346FFF7CDFEA5E796F8280081073FF50A
:100ED0009CAF304600F020FA9CE706B0BDE8F081F8
:100EE0004FF0A00080F31188BFF36F8FBFF34F8FD7
:100EF000FEE74FF0A00080F31188BFF36F8FBFF3C0
:100F00004F8F00BFFEE7000070B582B00E4604466A
:100F100000F02AFC01A800F04BF8019919B101F08A
:100F200089F902B070BD05464EB9A54207D301F05C
:100F300081F920462946FFF71DFF02B070BD4EB172
:100F400040F28000C2F2000000680068B0FA80F051
:100F5000420900E0002241F2BC10C2F20000006829
:100F6000611B00F0D7FA01F065F90028D9D14EF6DF
:100F70000450CEF200004FF080510160BFF34F8F5C
:100F8000BFF36F8F02B070BD40F27800C2F2000074
:100F90000168096821B10068C068C068406801E064
:100FA0004FF0FF3041F26C11C2F20001086070474F
:100FB00070B5044600F0DEFF40F26806C2F200069B
:100FC00031680546884203D200F008F8012000E0AD
:100FD000002020602846356070BD00002DE9F041FA
:100FE00082B040F27407C2F200073868016891B31A
:100FF0004FF0000809E000BF6060386829462461AE
:1010000000F00CF93868016829B3C068C468066844
:10101000251D284600F0D6F8216A2046884794F816
:1010200028004007EED5A0693044B042E4D82046FD
:10103000002132460023CDF8008001F0B7F90028E6
:10104000E0D14FF0A00080F31188BFF36F8FBFF3A2
:101050004F8F00BFFEE740F28001C2F200010A6834
:1010600008603A6002B0BDE8F081000081B0002065
:10107000009040F20400C2F2000000684FF0A001AE
:1010800081F31188BFF36F8FBFF34F8F013001D011
:10109000FEE700BF00980028FCD001B070470000B8
:1010A00082B001AC2046FFF7F7FC0199FFF72CFF57
:1010B000FFF798FEF6E70000F0B581B0044600F0B7
:1010C000EFF894F94560012E18DB04F1240503E0E4
:1010D00070B2013E012811DDA06C28B12046FFF757
:1010E000F9FD40B9F4E700BF286838B1284601F09F
:1010F00053F80028ECD000F091FAE9E7FF2684F8D5
:10110000456000F0F1F800F0CBF894F94470012F3D
:101110000FDB04F1100500BF286850B1284601F02C
:101120003BF8002818BF00F079FA78B2013F012897
:10113000F2DC84F8446000F0D7F801B0F0BD0000A4
:1011400010B50446400724F0070018BF00F108045A
:1011500000F00AFB40F26C00C2F20000016839B9ED
:1011600040F2E801C2F20001083121F007010160FC
:1011700041F26811C2F200010B68E21840F6F77400
:10118000A2424FF0000404D89A4202D900680A60D3
:10119000C41801F04FF8204610BD0000034641F28C
:1011A0006D00C0F200004FF0807C21F0010103E9E6
:1011B00003106FF0020043F8240CA3F1440043F83D
:1011C000202C7047D0E90123016993604B68D0F867
:1011D00008C08342CCF8042001D182684A60002212
:1011E00002610868013808600868704741F2EC0045
:1011F000C2F2000001680131016070474FF0FF3119
:10120000024642F8081F00214260C0E90322016043
:1012100070470000002101617047000080B5D1F8DF
:1012200000C01CF1010207D000F108039E465B6874
:101230001A686245FAD901E0D0F810E0DEF804201F
:1012400008614A609160C1F808E0CEF804100168B6
:101250000131016080BD0000D0F800C04368086122
:101260009A684B608A609A68996051600CF101013C
:101270000160704782B000F07DFE01AC019000BFBC
:1012800020464FF47A7100F067F9F9E7DFF80C00B7
:10129000016841F470010160704700BF88ED00E013
:1012A0004FF0A00080F31188BFF36F8FBFF34F8F13
:1012B00040F20400C2F2000001684A1C026001B161
:1012C00070474EF60450CEF200000068000608BFDA
:1012D00070474FF0A00080F31188BFF36F8FBFF30A
:1012E0004F8F00BFFEE7000040F20400C2F2000092
:1012F000016839B10139016018BF7047002080F3DF
:10130000118870474FF0A00080F31188BFF36F8FF2
:10131000BFF34F8FFEE70000002808BF70474FF073
:10132000A00080F31188BFF36F8FBFF34F8F00BF12
:10133000FEE7000040F20000C2F20000016844F63F
:10134000D352C1F26202A1FB0213990941F2F803E0
:10135000C2F2000319606FF07F43B3FBF1F141F279
:101360006413C2F20003196041F2F401C2F20001F9
:1013700001230B704EF21001CEF2000100230B602E
:101380008B600068A0FB02024FF0FF3000EB921070
:1013900048600720086070472DE9F04381B005469A
:1013A00041F264104EF21006C2F20000CEF20006C6
:1013B00000683168A84238BF054621F0010041F2BB
:1013C000F8083060C2F2000841F2F409B068D8F8B9
:1013D0000010C2F200096C1E99F8002001FB040005
:1013E000002A18BF2D22871A98BF074672B6BFF38E
:1013F0004F8FBFF36F8FFFF795F938B300207760F9
:10140000B060306840F00100306025B1BFF34F8F0D
:1014100030BFBFF36F8F062062B6BFF34F8FBFF3AD
:101420006F8F72B6BFF34F8FBFF36F8F306031682D
:10143000D8F80000C90317D4B16800FB05F2511AAF
:10144000B1FBF0F4621C5043401A1EE0B0687060BB
:10145000306840F001003060D8F80000013870605A
:1014600062B601B0BDE8F083B168FA4399F8003084
:1014700002441144002B18BF2D23421E814208460E
:1014800088BF1046994238BF104670600020B06097
:10149000306840F001003060204600F049F9D8F88B
:1014A00000000138706062B601B0BDE8F083000052
:1014B000EFF30580102814D34EF2F031CEF2000184
:1014C000405C41F2E801C2F200010978884208D28A
:1014D0004FF0A00080F31188BFF36F8FBFF34F8FE1
:1014E000FEE74EF60C50CEF2000041F2F00100682B
:1014F000C2F20001096800F4E060884298BF7047BA
:101500004FF0A00080F31188BFF36F8FBFF34F8FB0
:10151000FEE7000070B515460E460446FFF7C0FE14
:1015200094F84400FF2804BF002084F8440094F895
:101530004500FF2804BF002084F84500FFF7D4FED3
:10154000A06B28B904F1240031462A4600F088F83F
:101550002046FFF7B1FD70BDB0B590B10D46D1B1D9
:10156000044641F20410C2F200000068E8B14FF0F6
:10157000A00080F31188BFF36F8FBFF34F8F00BFC0
:10158000FEE74FF0A00080F31188BFF36F8FBFF329
:101590004F8F00BFFEE74FF0A00080F31188BFF32C
:1015A0006F8FBFF34F8F00BFFEE700F0DDF841F211
:1015B000B810C2F2000000682268904202EB0501F8
:1015C00003D29142216003D308E09142216001D30C
:1015D000814203D9081A0021FFF7DCF800F02AFE47
:1015E000002818BFB0BD4EF60450CEF200004FF0F8
:1015F00080510160BFF34F8FBFF36F8FB0BD00000C
:1016000041F27011C2F200010968016041F2B811A3
:10161000C2F20001096841607047000041F2C41045
:10162000C2F20000012101607047000010B568B1EE
:101630000C4640F27001C2F2000109681831FFF750
:10164000EDFD20460121FFF7A5F810BD4FF0A000E9
:1016500080F31188BFF36F8FBFF34F8FFEE7000059
:10166000B0B590B10D4640F27001C2F200010968B8
:1016700014461831FFF7F0FD002C18BF4FF0FF356E
:1016800028462146FFF786F8B0BD4FF0A00080F352
:101690001188BFF36F8FBFF34F8F00BFFEE70000CD
:1016A00080B582B0002041F2601C009040F6B92065
:1016B000C2F2000CC0F200001BA182220023CDF870
:1016C00004C000F013FC012808BF00F03FFE411CDD
:1016D00020D001281CD14FF0A00080F31188BFF367
:1016E0006F8FBFF34F8F41F26C10C2F200004FF0CA
:1016F000FF31016041F28C10C2F200000121016053
:1017000041F2B810C2F200000021016000F078F848
:1017100002B080BD4FF0A00080F31188BFF36F8F3F
:10172000BFF34F8FFEE700BF49444C450000000067
:1017300041F2B811C2F2000141F26C130A68C2F220
:1017400000031B6802449A4209D94FF0A00080F3BD
:101750001188BFF36F8FBFF34F8F00BFFEE70A689A
:10176000104408607047000041F20410C2F200000B
:10177000016801310160704741F20410C2F20000BB
:10178000006830B141F2C410C2F2000001210160D2
:10179000704741F2C410C2F200000021016041F222
:1017A0000C10C2F200000068B0FA80F0C0B2C0F1C4
:1017B0001F0040F2840100EB8000C2F2000151F8EA
:1017C000202092B101EB800050F8041F4968021DEF
:1017D0009142016001D149680160006840F27001E6
:1017E000C068C2F20001086070474FF0A00080F3AB
:1017F0001188BFF36F8FBFF34F8F00BFFEE700006C
:1018000080B582B04EF20040CEF200004CF2702162
:10181000C4F20F11D0F800294B1C9A4209D14FF0A5
:10182000A00080F31188BFF36F8FBFF34F8F00BF0D
:10183000FEE7D0F800298A4209D14FF0A00080F3DA
:101840001188BFF36F8FBFF34F8F00BFFEE70178A2
:1018500041F2E8020191FF2101700178C2F2000219
:101860008DF803109DF8031001F0A001117041F2F2
:10187000F001C2F2000107220A609DF90330B3F1C2
:10188000FF3F2FDD042A3CD14FF4E06303EA02223C
:101890000A6001990170D0F8201941F46001C0F884
:1018A0002019D0F8201941F06041C0F82019FFF745
:1018B00041FD40F20400C2F2000000210160FFF788
:1018C000E5FC4EF63470CEF20000016841F0404174
:1018D0000160FFF73BFAFFF74FFFFFF7C7FB002060
:1018E00002B080BD072200BF9DF80330013A5B00C3
:1018F0008DF803309DF90330002BF5D40A60042ADB
:10190000C2D04FF0A00080F31188BFF36F8FBFF3F8
:101910004F8F00BFFEE70000F0B581B098B10546DB
:101920004843543014460E46FFF70AFC074638B1C8
:1019300007F154022846314623460097FFF7F8F88E
:10194000384601B0F0BD4FF0A00080F31188BFF31E
:101950006F8FBFF34F8F00BFFEE7000070B5F8B187
:1019600004460E46FFF79CFC2068D4E90F120025C0
:1019700002FB0103013901FB0201A563C4E9010374
:10198000FF20E16084F8440084F8450004F1100071
:101990007EB1FFF733FC04F12400FFF72FFC18E0C1
:1019A0004FF0A00080F31188BFF36F8FBFF34F8F0C
:1019B000FEE7016869B100F0EFFB50B14EF604504C
:1019C000CEF200004FF080510160BFF34F8FBFF3A4
:1019D0006F8FFFF789FC012070BD00002DE9F04FEB
:1019E00083B00292B8B11D460E460446E9B1022DFD
:1019F00003D1E06B012840F09F8000F0A7FA00BB04
:101A00000298F0B14FF0A00080F31188BFF36F8F00
:101A1000BFF34F8FFEE74FF0A00080F31188BFF3B4
:101A20006F8FBFF34F8F00BFFEE7206C0028DED022
:101A30004FF0A00080F31188BFF36F8FBFF34F8F7B
:101A4000FEE7FFF72DFCA06B022D58D0E16B88421A
:101A500055D304F110084FF0000B6F460DF1080943
:101A60004FF0000A0298002800F08280BAF1000FBF
:101A700004D13846FFF7C4FD4FF0010AFFF734FCEC
:101A8000FFF772FEFFF70CFC94F84400FF2808BF34
:101A900084F844B094F84500FF2808BF84F845B0A6
:101AA000FFF722FC3846494600F0CEF9002862D103
:101AB0002046FFF701F9A8B102994046FFF7B6FDAD
:101AC0002046FFF7F9FA00F0B5FB80B94EF6045056
:101AD000CEF200004FF080510160BFF34F8FBFF393
:101AE0006F8F04E02046FFF7E7FA00F0A3FBFFF753
:101AF000D7FBA06B022D02D0E16B8842B2D2A76B5C
:101B0000204631462A46FEF75DFFA16CE9B1022D61
:101B100001D1002F44D12046FFF7DCF800283FD048
:101B20004EF60450CEF200004FF080510160BFF33A
:101B30004F8FBFF36F8F33E04FF0A00080F3118819
:101B4000BFF36F8FBFF34F8FFEE754F8241FD9B157
:101B5000204600F021FB18B34EF60450CEF20000F0
:101B60004FF080510160BFF34F8FBFF36F8F17E0CD
:101B7000FFF7BAFB04E02046FFF79EFA00F05AFB9D
:101B8000002003B0BDE8F08F50B14EF60450CEF205
:101B900000004FF080510160BFF34F8FBFF36F8F94
:101BA000FFF7A2FB012003B0BDE8F08F2DE9F0475D
:101BB00000B31E46924605460F4621B3022E02D1BF
:101BC000E86B01283ED1FFF773FCEFF311884FF06B
:101BD000A00080F31188BFF36F8FBFF34F8FA86B06
:101BE000022E1CD0E96B884219D3002088F311889B
:101BF000BDE8F0874FF0A00080F31188BFF36F8F2E
:101C0000BFF34F8FFEE7286C0028D7D04FF0A0001D
:101C100080F31188BFF36F8FBFF34F8FFEE795F806
:101C20004540D5F83890284639463246FEF7CAFE78
:101C3000FF2C10D0601C85F84500012088F3118826
:101C4000BDE8F0874FF0A00080F31188BFF36F8FDD
:101C5000BFF34F8FFEE7A86C48B1022E1CD1B9F13B
:101C6000000F19D0012088F31188BDE8F08755F8DE
:101C7000240F18B3284600F08FFA0146BAF1000F7E
:101C80004FF0010018BF0029D8D00120CAF8000089
:101C900088F31188BDE8F0872846FFF71BF8014656
:101CA000BAF1000F4FF0010018BF0029C6D0012083
:101CB000CAF8000088F31188BDE8F087012088F396
:101CC0001188BDE8F08700002DE9F04F85B004923F
:101CD00098B10C460546002900F0A38000F036F9C3
:101CE000A8B9049898B14FF0A00080F31188BFF311
:101CF0006F8FBFF34F8F00BFFEE74FF0A00080F360
:101D00001188BFF36F8FBFF34F8F00BFFEE705F160
:101D100024000090002005F110094FF0000B02AFE5
:101D20000DF1100A01900AE02846FFF7C5F900F00E
:101D300081FA2846FEF7B4FF002840F08080FFF7C4
:101D4000AFFAD5F83880B8F1000F1DD028462146EB
:101D5000FEF724FEA8F10100A863286970B1484687
:101D600000F01AFA50B14EF60450CEF200004FF0D7
:101D700080510160BFF34F8FBFF36F8FFFF7B4FA4D
:101D80000020012690B95BE0049848B1019820B981
:101D90003846FFF735FC01200190012030B94FE0B3
:101DA000FFF7A2FA00260020002849D0FFF79CFA8E
:101DB000FFF7DAFCFFF774FA95F84400FF2808BF34
:101DC00085F844B095F84500FF2808BF85F845B070
:101DD000FFF78AFA3846514600F036F80028A3D1BA
:101DE0002846FEF75DFFB0B104990098FFF71EFC8E
:101DF0002846FFF761F900F01DFA00289FD14EF642
:101E00000450CEF200004FF080510160BFF34F8FBD
:101E1000BFF36F8F93E72846FFF74EF900F00AFAF9
:101E20008DE7286C00283FF459AF4FF0A00080F3F5
:101E30001188BFF36F8FBFF34F8F00BFFEE70026FF
:101E4000304605B0BDE8F08FB0B5D8B10D4611B33E
:101E50000446FFF725FA41F2B81040F27002C2F2D0
:101E60000000C2F2000200686168136893F8553000
:101E7000DBB11068002180F855100124FFF734FA17
:101E80002046B0BD4FF0A00080F31188BFF36F8FE4
:101E9000BFF34F8FFEE74FF0A00080F31188BFF330
:101EA0006F8FBFF34F8F00BFFEE72A68531C0CD023
:101EB00041F27013C2F20003D3F800C0884206D387
:101EC00023689C4503D00124D8E70024D6E7401AB4
:101ED000824206D9101A28602046FFF791FB0024A1
:101EE000CCE7002001242860C8E700002DE9F0437A
:101EF00083B007469000984615468946FFF720F9BB
:101F000078B106465820FFF71BF938B1044606633E
:101F100054B94FF0FF3003B0BDE8F0833046FFF70F
:101F2000FBF90024002CF4D0DDE90A102A46CDE9A3
:101F300000103846494643460294FEF70BFE204601
:101F4000FEF77EFC012003B0BDE8F08341F28C1067
:101F5000C2F200000068002804BF0120704741F26F
:101F60000410C2F200000068B0FA80F0400940009E
:101F70007047000041F2B810C2F2000000687047DC
:101F80002DE9F04F81B041F20410C2F20000006868
:101F900040B141F27410C2F2000001680024013126
:101FA00001609BE041F2B810C2F2000001684E1CD3
:101FB000066021D340F27800C2F20000016809688F
:101FC00049B14FF0A00080F31188BFF36F8FBFF3CA
:101FD0004F8F00BFFEE740F27C02C2F200020168B0
:101FE0001368036041F270101160C2F200000168D2
:101FF00001310160FEF7C8FF41F26C11C2F200012D
:10200000086840F2700A8642C2F2000A01D2002437
:102010004EE040F2780BC2F2000BDBF80000002427
:102020000068D8B341F20C190127C2F200091FE081
:10203000D8F82C00D9F8001007FA00F21143C9F8BB
:10204000001040F2840100EB8000C2F2000101EBBD
:1020500080002946FFF700F9D8F82C00DAF80010C4
:10206000C96ADBF800208842106828BF3C46C0B12E
:10207000DBF80000C068D0F80C80454655F8040F26
:10208000864210D32846FFF79DF8D8F8280000288C
:10209000CED008F11800FFF795F8C9E74FF0FF30F0
:1020A00005E04FF0FF3041F26C11C2F20001086010
:1020B000DAF8000040F28401C06AC2F2000100EBCD
:1020C000800051F82000012841F2C410C2F2000043
:1020D00088BF01240068002818BF0124204601B0F1
:1020E000BDE8F08F70B580B1044640F27000C2F2D6
:1020F00000000068A0420BD04FF0A00080F31188D0
:10210000BFF36F8FBFF34F8FFEE70026304670BDE1
:10211000E06CB8B301384FF00006E06430D1E06AFB
:10212000A16C88422CD0251D2846FFF74BF80028CB
:1021300040F2840041F20C11C2F20000C2F2000130
:102140000CD1E26A02EB820350F8233033B9012349
:102150000E6803FA02F226EA02020A60A26C012665
:10216000C2F10503E262A3610B6806FA02F423439D
:102170000B6002EB820100EB81002946FFF76CF84F
:10218000304670BD4FF0A00080F31188BFF36F8F11
:10219000BFF34F8FFEE70000B0B5C068C56895B1CA
:1021A00005F118042046FFF70DF841F20410C2F2C1
:1021B0000000006888B141F27810C2F200002146A8
:1021C000FFF74AF824E04FF0A00080F31188BFF336
:1021D0006F8FBFF34F8F00BFFEE72C1D2046FEF729
:1021E000F1FF41F20C12E86AC2F200020121136809
:1021F00081401943116040F2840100EB8000C2F27B
:10220000000101EB80002146FFF726F8FEF7BCFE37
:1022100040F27001C2F20001E86A0968C96A8842A6
:1022200091BF002041F2C411C2F20001012088BF19
:102230000860B0BD2DE9F04F81B041F20414C2F244
:102240000004206868B1FFF72BF82068013820608F
:10225000206880B10024FFF747F8204601B0BDE8B0
:10226000F08F4FF0A00080F31188BFF36F8FBFF3A2
:102270004F8F00BFFEE741F2FC00C2F20000006891
:1022800000285FD041F27816C2F20006306841F2B1
:10229000C418C2F2000898B341F20C1540F2840948
:1022A00040F2700A4FF0010BC2F20005C2F20009C1
:1022B000C2F2000AF068C76807F11800FEF782FF53
:1022C0003C1D2046FEF77EFFF86A29680BFA00F2F3
:1022D000114300EB8000296009EB80002146FEF7E6
:1022E000BBFFF86ADAF80010C96A884228BFC8F84C
:1022F00000B030680028DDD1002F18BFFEF744FE83
:1023000041F27414C2F2000425685DB1012600BFD9
:10231000FFF736FE002818BFC8F80060013DF7D16E
:1023200000202060D8F8000070B14EF60450CEF2C4
:1023300000004FF080510160BFF34F8F0124BFF3C5
:102340006F8F88E7002486E7002484E780B582B099
:10235000FEF7CEFA41F2BC10C2F20000006890B164
:10236000022041F2C01C009041F2A100C2F2000C18
:10237000C0F200000BA14FF482720023CDF804C01C
:10238000FFF7B4FD00E0002000281CBF02B080BDB4
:102390004FF0A00080F31188BFF36F8FBFF34F8F12
:1023A000FEE700BF546D72205376630010B584B011
:1023B000A8B141F2BC14C2F2000484462068C0B146
:1023C0000529CDE90012CDF808C015DCFFF7BEFDE8
:1023D00001462068022916D1069A694615E04FF099
:1023E000A00080F31188BFF36F8FBFF34F8F00BF42
:1023F000FEE7002004B010BD69461A460023FFF72F
:10240000D5FB04B010BD694600220023FFF7E6FAB1
:1024100004B010BDF1EE100A4FF6FF71C0F2C031EA
:1024200020EA010040F04070E1EE100A7047000021
:10243000502400000000002008000000A802000056
:102440005824000008000020C0130000C40200004F
:0824500080F0FA02AAAAAAAA70
:040000050000026D88
:00000001FF
